:040FF800008007006E
:040FFC0000E007000A
:0200000270008C
:1080000000000120B5820700DD820700DF82070043
:10801000E1820700E3820700E5820700000000001C
:10802000000000000000000000000000E7820700E0
:10803000E982070000000000EB820700ED820700E4
:10804000EF820700EF820700158F0700EF8207001D
:10805000EF820700EF820700EF820700EF82070040
:10806000EF820700EF820700EF820700EF82070030
:10807000EF820700EF820700EF820700EF82070020
:10808000719E0700EF820700EF820700EF82070072
:10809000EF820700EF820700EF820700EF82070000
:1080A000EF820700EF820700EF820700EF820700F0
:1080B000EF820700EF8207000000000000000000D0
:1080C000EF820700EF820700EF820700EF820700D0
:1080D000399B0700EF820700EF82070000000000D5
:1080E0000000000000000000000000000000000090
:1080F0000000000000000000000000000000000080
:10810000000000000000000000000000000000006F
:10811000000000000000000000000000000000005F
:10812000000000000000000000000000000000004F
:10813000000000000000000000000000000000003F
:10814000000000000000000000000000000000002F
:10815000000000000000000000000000000000001F
:10816000000000000000000000000000000000000F
:1081700000000000000000000000000000000000FF
:1081800000000000000000000000000000000000EF
:1081900000000000000000000000000000000000DF
:1081A00000000000000000000000000000000000CF
:1081B00000000000000000000000000000000000BF
:1081C00000000000000000000000000000000000AF
:1081D000000000000000000000000000000000009F
:1081E000000000000000000000000000000000008F
:1081F000000000000000000000000000000000007F
:1082000010B5054C237833B9044B13B10448AFF3D0
:1082100000800123237010BDC40000200000000076
:10822000E8D1070008B5034B1BB103490348AFF37E
:10823000008008BD00000000C8000020E8D1070051
:10824000154B002B08BF134B9D46A3F5803A002128
:108250008B460F461348144A121A04F08BFD0F4B3D
:10826000002B00D098470E4B002B00D098470020E1
:10827000002104000D000D48002802D00C48AFF387
:10828000008004F037FD2000290001F029FA04F0F5
:108290001DFD00BF000008000000012000000000DC
:1082A00000000000C40000200016002000000000B4
:1082B000000000000649074A074B9B1A03DD043BF8
:1082C000C858D050FBDC00F04DF8FFF7B9FF0000B4
:1082D00010D2070008000020C4000020FEE7FEE7DF
:1082E000FEE7FEE7FEE7FEE7FEE7FEE7FEE7FEE766
:1082F0000C4B1B78062B10D10B4B1B681A070CD1AB
:108300000A4B186800F0F003302B08D000F0E000B2
:10831000A0F14003584258417047002070470120A7
:10832000704700BFE00F00F0E40F00F0E80F00F02E
:10833000094B1B78062B0CD1084B1B681A0708D178
:10834000074B186800F0F000A0F130035842584184
:1083500070470020704700BFE00F00F0E40F00F00E
:10836000E80F00F008B5FFF7C3FF28B17D4B7E4A48
:108370001B68C3F304231360FFF7DAFF10B17B4BD4
:108380007B4A1A60FFF7B4FF28B17A4B7A4A1B6820
:10839000C3F342331360FFF7CBFF20B1774AD368B2
:1083A00023F08073D360FFF7A3FF40B14FF0804309
:1083B0000022C3F80C21C3F81021C3F83825FFF7B9
:1083C000B7FF10B16E4B03221A60FFF7B1FF40B147
:1083D0006C4B05221A6001229A6700229A603F22A4
:1083E0005A60694B1B78062B50D1684B1B681907E4
:1083F0004CD1674B1B6803F0F003502B46D14FF074
:108400008052644BD2F80414C3F82015D2F8081433
:10841000C3F82415D2F80C14C3F82815D2F8101498
:10842000C3F82C15D2F81414C3F83015D2F8181468
:10843000C3F83415D2F81C14C3F84015D2F8201430
:10844000C3F84415D2F82414C3F84815D2F82814F8
:10845000C3F84C15D2F82C14C3F85015D2F83014C8
:10846000C3F85415D2F83414C3F86015D2F8381490
:10847000C3F86415D2F83C14C3F86815D2F8401458
:10848000C3F86C15D2F84424C3F87025FFF730FF09
:1084900028B1414B414A1B6803F04F031360FFF7BB
:1084A00027FF48B14FF08043D3F80024D20744BFE0
:1084B0006FF00102C3F80024394B1B68062B08D16A
:1084C000384B1B68062B01BF374A136843F480639F
:1084D0001360364AD2F8883043F47003C2F888300B
:1084E000BFF34F8FBFF36F8F4FF01023D3F80022ED
:1084F000002A03DBD3F80432002B2FDA2C4B0122A5
:10850000C3F80425D3F80024002AFBD04FF0102232
:108510001521C2F80012D3F80024002AFBD04FF036
:1085200010231522C3F80422214B1A46D3F8001455
:108530000029FBD00021C3F80415D2F80034002B29
:10854000FBD0BFF34F8F19491A4BCA6802F4E0629F
:108550001343CB60BFF34F8F00BFFDE7164B174AA5
:108560001A6008BD240300104035014074C0074064
:108570000DF0ADBA440200103C050040F0ED00E003
:10858000A005004010560040E00F00F0E40F00F09E
:10859000E80F00F000C0004058020010E40E004058
:1085A00030010010340100103C17004000ED00E0E5
:1085B00000E001400400FA05080000200090D0030C
:1085C0007047704783070AD54FF0A0430C22C3F8C9
:1085D0000027C3F80027C3F80027C3F80027704717
:1085E00043689B68184708B5436808305A7901F01A
:1085F0002AF8002008BD2DE9F0430D469BB008463F
:1086000099469046FFF7ECFF6E6874794C4528BF99
:108610004C4607462246414602A801F009F8727905
:1086200022990AA801F00FF800970AAB224602A986
:1086300005F1080004F0E2F9002848F2425018BFA2
:1086400000201BB0BDE8F0834B1C30B5DB000446B6
:1086500012F003009BB20DD1074D2A601A44074B5C
:108660001A60074B1870074B1870074B1C80074B9C
:10867000198030BD0720FCE7E8000020E40000205E
:10868000E0000020F0000020EC000020EE000020C0
:108690002DE9F047284D2B888B4206460C4617469D
:1086A00045D3002000F098F8244B254A2548197836
:1086B00013780088DBB2834238BF0133C9B234BFBC
:1086C000DBB2002399422CD092F800801378DBB201
:1086D000984286BF0133DBB200231370002000F004
:1086E0007DF84FF6FF73984523D0DFF860A0DAF8E5
:1086F00000304FEAC80903EB090243F838709EB115
:1087000094B1114B28881B68224608FB0030314683
:1087100004F022FBDAF800304B4400209C80BDE8D6
:10872000F0874FF6FF78D9E700209080F7E709201F
:10873000F5E70420F3E700BFEC000020F000002084
:10874000E0000020EE000020E4000020E80000200F
:10875000F8B5124C124D264622782B789A4200D159
:10876000F8BD23780F48104A078812680F48DBB21B
:1087700019B202EBC10C006852F83120BCF80410A9
:1087800003FB070090470A4A23781288DBB29A421B
:1087900086BF0133DBB200233370DDE7F000002039
:1087A000E0000020EC000020E8000020E4000020B1
:1087B000EE00002072B6024A13680133136070475E
:1087C000F4000020034A1368013B136003B962B64A
:1087D000704700BFF4000020FFF7ECBFFFF7F2BFC7
:1087E00030B53AB11368DB430A4D0144814204D1EC
:1087F000D84330BD4FF0FF33F6E710F8012B53405C
:10880000082213F0010418BF2C46013A84EA5303EE
:10881000F7D1EBE72083B8ED50E8002F42EA0103DF
:1088200040E8003C9CF0000FF6D11046704750E83D
:10883000003F03EA010240E8002C9CF0000FF6D153
:10884000104670470121FFF7E7BF0021FFF7EFBF98
:1088500010B590B1D0E9012301689B1ADBB20A6020
:10886000013BDBB2FF2B026802D10020107110BD6A
:1088700011684C1C14600B70F2E70E20F7E738B556
:1088800004460020FFF7A8FF2268616813688B4246
:1088900015D9591E116013F8015C228AE36802FBA6
:1088A00005352268A36811685B1A1179DBB2994219
:1088B00000D213710020FFF791FF284638BD002534
:1088C000F8E738B5054600200C46FFF785FF2A6813
:1088D0001368591C1160E968641A298AB4FBF1F421
:1088E0001C700020BDE83840FFF778BF01600B68BE
:1088F0001146184710B40468E468A4465DF8044BB8
:10890000604710B404682469A4465DF8044B6047CE
:1089100070B508B10368ABB90C4D0D4C0026641B53
:108920001423B4FBF3F4B44201D1002009E02B6816
:1089300013B901361435F6E7DB6928469847002855
:10894000F7D070BDDB69BDE870401847B00000206B
:10895000C4000020014B436000207047ACCD0700ED
:108960000846704700207047024B1868003018BF57
:1089700001207047F800002008B50248FFF765FFA6
:10898000002008BDF800002008B510461A4604F083
:10899000E3F9002008BD00002DE9F043814687B0CF
:1089A00014480F4616469846FFF74CFF0446F0B9A8
:1089B0000546AE4215D10F48FFF747FFD9F80830FA
:1089C0005BB102228DF800200022CDE90127CDE91C
:1089D0000326CDF8148068469847204607B0BDE8C6
:1089E000F08307EB053000F05DFA0135E1E7112473
:1089F000F3E700BFF80000202DE9F041804686B083
:108A000011480F4616461D46FFF71CFF0446C8B91D
:108A1000AA083146384600F05DFA0B48FFF715FF0B
:108A2000D8F8083053B101228DF800200C9A059235
:108A3000CDE90147CDE9036568469847204606B071
:108A4000BDE8F0811124F9E7F80000202DE9F04F8E
:108A5000C9B008AA01F1400514464B780E781B04F2
:108A600043EA0663CE7833438E78043143EA062323
:108A70008D4244F8043BF0D11024916B16464FEA26
:108A8000F14383EA714383EA9123716A366852F8AD
:108A9000045F31440B444FEAB54181EAF51181EAA4
:108AA000D50101340B44402CD363E6D1D0E914E363
:108AB0000093836D0193C36D0293036E0393436E22
:108AC0000493836E0593C36E0693DDE9057BDDE9B0
:108AD000031CDDE901592B4B009E079374464FF0B0
:108AE0000008079B53F8042B07934FEAF12383EA0E
:108AF000B11383EA716A08AB53F828301A440AEBC1
:108B0000020327EA010A01EA0C028AEA02021A4475
:108B10004FEA743A86EA05035A448AEAB40A06EA36
:108B2000050B234083EA0B038AEAB45A08F10108D3
:108B30009A44B8F1400F02EB0903BB465244A946E0
:108B400019D172440265009A22444265019A324466
:108B50008265029A2A44C265039A1A44049B0266FB
:108B60000B444366059B63448366069B3B44C36694
:108B700049B0BDE8F08F674635468C462646194613
:108B80001446AEE7D8CD070030B5E0B10F4A104922
:108B900000240025C0E91245C0E914120D4C0E4A0C
:108BA0000E4DC0E916420E4AC0E918520D4A8266BF
:108BB00002F17452A2F523020023A2F6924203644A
:108BC000C266184630BD0E20FCE700BF85AE67BB0D
:108BD00067E6096A72F36E3C3AF54FA57F520E5173
:108BE0008C68059BABD9831FF8B50446F0B10AB970
:108BF0000020F8BDD1B10D468E180027B542F7D040
:108C0000236C15F8012BE2540133402B2364F5D17A
:108C100021462046FFF71AFFD4E9123113F50073FD
:108C200041F10001C4E912312764E7E70E20E0E7D3
:108C300070B50D4616460446002877D0002975D039
:108C4000026C8021372A02F1010381544FF00002A7
:108C500042D8382B3BD1D4E91223206C0821E1FB08
:108C60000023104612BAE2631A0A194684F83B3010
:108C700084F83A201A0C1B0EC4E9120184F839203A
:108C8000214684F838302046FFF7E0FE691E76B3AF
:108C90000023E26EDA4001F8012FA26EDA400A7179
:108CA000626EDA400A72226EDA400A73E26DDA40CE
:108CB0000A74A26DDA400A75626DDA400A76226D96
:108CC000DA400833202B0A77E3D1002070BDE2544C
:108CD0000133BEE7E25401333F2BFBD92146204646
:108CE000FFF7B4FE3822002104F044F8B3E718235C
:108CF000226DDA4001F8012F626DDA400A71A26D2F
:108D0000DA400A72E26DDA400A73226EDA400A74BF
:108D1000626EDA400A75A26EDA400A76E26EDA40D6
:108D2000083B13F1080F0A77E2D1CEE70E20CDE71A
:108D3000F0B578B371B36BB300241C600A44DB2731
:108D40004FF0DC0C4FF0DD0E1C688A4204F1010587
:108D500000EB040604D11D60C02333700020F0BD79
:108D60000E78C02E05D0DB2E0CD01D600D78055579
:108D700006E01D6007551C68651C1D6000F804C0F6
:108D80000131E1E71D6006551C68651C1D6000F897
:108D900004E0F5E70E20E2E710B590B3D0E9022336
:108DA0009A4230D00478012C11D063B21BB1022C4E
:108DB00021D0112012E0C02927D0DB2902D10123C4
:108DC0000370F6E74368541C84609954F1E7DC298A
:108DD00005D0DD290AD0022303700B2010BD511CE1
:108DE00043688160C02199540023E9E7511C8160E8
:108DF0004368DB21F7E7C029DBD1002303708360E0
:108E0000D7E70E20EAE70420E8E71846E6E7000087
:108E10001FB503788DF800304368019383688DF89F
:108E20000830C3680393054A054B684653F8213060
:108E300052F82110984705B05DF804FBFC000020B3
:108E400000010020F0B506460F4B16F804CB43F89E
:108E50002C200E4B17460A6943F82C200C460FCCE9
:108E600089B06D460FC594E80F00002F85E80F000C
:108E7000074ACDF810C008BF3A466946304600F0B0
:108E800003F909B0F0BD00BF00010020FC00002084
:108E9000118E0700024AD2F80034002BFBD0704735
:108EA00000E001400A4908B50223C1F80435BFF3C8
:108EB0006F8FBFF34F8FC1F80805FFF7EBFF00235B
:108EC000C1F80435BFF36F8FBFF34F8F08BD00BFEC
:108ED00000E001400E4B10B50124C3F80445BFF378
:108EE0006F8FBFF34F8F01EB8204401AA14208D16C
:108EF000074B0022C3F80425BFF36F8FBFF34F8FDA
:108F000010BD431851F8042B1A60FFF7C3FFEDE7BB
:108F100000E00140014B1B68184700BF040100201E
:108F200038B50B4B98420D4601D0002038BD0020CB
:108F3000FFF752FC074B1C7914B901221D601A710E
:108F40000020FFF74BFC002CEFD01120EEE700BF14
:108F50000020004004010020034B984201BF034B56
:108F600000221A601A71704700200040040100209E
:108F70000023435082B043580193019B02B07047D5
:108F80001FB501238DF80030044BCDE90110D3E962
:108F900000126846904705B05DF804FB0C01002004
:108FA0007FB5374AD2F82461002E48D010464FF4DE
:108FB0009271FFF7DDFF02238DF80030D2F8803484
:108FC000C2F880340393D2F83C3502932D4BDA6813
:108FD00001920022C3E906226846D3E900129047B5
:108FE000274AD2F844317BB14FF4A2711046FFF703
:108FF000BFFF244B996939B10021C3E90611D96833
:10900000D2F83C05FFF7BCFF1D4AD2F82031A3B1CE
:109010004FF490711046FFF7ABFF1A4B596961B1DD
:10902000D2F84C150291002299688DF80020019128
:109030005A616846D3E90012904704B070BDD2F877
:109040001031002BCCD04FF488711046FFF790FF01
:109050000C4BD2F83C0599698842C1D1DC69D968CA
:1090600064B1D2F8005225F02005C2F800521A6906
:109070009C61DA60DE61FFF783FFB1E79C61FAE78C
:10908000002000400C0100202DE9F8435D4F0679D7
:109090009146242202FB0672054692F820200C46D7
:1090A000002A40F0A88058490068FFF739FF804641
:1090B000002840F0A3802268501C0BD0012393406D
:1090C0004FF0A0420321C2F80835236803F5E0738E
:1090D00042F823106368591C1FBF03F5E0734FF07B
:1090E000A042002142F823102B68A269C3F824256E
:1090F000217D637D2A680B43C2F86C35D4E90021D9
:109100002B68C3F80C25C3F81415237D012B1FD140
:10911000A3685A1C1FBF4FF0A04203F5E073002163
:1091200042F82310E268531C0BD0012393404FF008
:10913000A0420321C2F80835E36803F5E07342F862
:109140002310D4E902122B68C3F80825C3F81015C0
:1091500024237343FA18C2F804902269FA50B9F133
:10916000000F37D04FF488712868227FFFF700FF87
:109170004FF490712868FFF7FBFE4FF49271286856
:10918000FFF7F6FE4FF4A2712868FFF7F1FE2B6897
:109190001E49C3F804132968090B4BB2002BAEBF5C
:1091A00003F1604301F00F01194B4FEA4212D2B2B2
:1091B000AABF03F561435A5483F800232B681B0BA5
:1091C0005AB2012103F01F0301FA03F352091149B6
:1091D00041F822302B680822C3F80025242303FB22
:1091E00006730022C3E906225A61012283F8202077
:1091F0004046BDE8F8834FF00808F9E74FF0110842
:10920000F6E700BF0C010020A18F07001003020049
:1092100014ED00E000E100E0F8B5036804792F4D9B
:109220000022C3F80025242303FB04535B6883B1A9
:1092300003682B4AC3F8082303681B0B5AB20121A9
:10924000520903F01F0301FA03F32032254941F8C4
:10925000223003684FF0FF3CD3F80C75D3F8146547
:10926000D3F80825D3F81015C3F80CC5C3F814C5F6
:1092700003686745C3F808C518BF07F5E077C3F86A
:1092800010C51EBF4FF0A0434FF0020C43F827C09B
:10929000771C1FBF4FF0A04306F5E076022743F886
:1092A00026704E1C1FBF01F5E0714FF0A04302264F
:1092B00043F82160531C1FBF4FF0A04302F5E0723A
:1092C000022143F822100068FFF746FE242303FB27
:1092D0000454002384F820306360F8BD0C010020A2
:1092E0001003020000E100E001F06043B3F1005F11
:1092F0002DE9F041064634D11C4B0779242505FBA6
:10930000073598466C6974BB6A61A96000684FF4C0
:109310009071FFF72DFE4FF4AC713068FFF728FE17
:1093200033686A69A968C3F84415C3F848253368E7
:1093300001229A606B686BB93368D3F82021D3F8A7
:10934000584152B9002CF8D00F24242303FB07877F
:1093500000237B612046BDE8F081002C18BF0F245C
:10936000F3E71024F6E71124F4E700BF0C01002016
:10937000F8B501F06043B3F1005F04460F4660D1D9
:109380000379314D242101FB0351486820B1216844
:109390004FF40476C1F80863242101FB03539E694E
:1093A00056B1D96900293BD020B123684FF404722B
:1093B000C3F80423112032E09A61DF60DE614FF4CC
:1093C00088712068FFF7D4FD4FF4A2712068FFF781
:1093D000CFFD2368C3F83475C3F8382523681EBB56
:1093E00001221A6021792368242202FB015252686B
:1093F0000ABBD3F81041D3F84421D3F82401144315
:1094000002D10028F5D02246242303FB0155002376
:10941000984218BF03209A42AB6118BF0F20F8BDD5
:109420001F61DA610126CAE7D3F8002242F0200268
:10943000C3F80022D6E74FF40472C3F804230020D7
:10944000EDE71020EBE700BF0C01002028B139B197
:109450000023C1E900301846704748F210507047A9
:1094600048F21350704730B1036848F240508B42C5
:1094700008BF0020704748F21050704728B148F2EA
:109480001150914208BF0020704748F210507047B9
:1094900070B506460C461D46FFF7D8FF50B9B379A4
:1094A0004AB1AB420AD111462046FFF79CF808B9F1
:1094B000044B236070BD48F21050FBE748F2115096
:1094C000F8E700BF7052464D2DE9F0470C460746BD
:1094D0000F49204615469846DDE90869FFF7C3FFA6
:1094E00098B963685A79494652003046FFF7C6FF7B
:1094F00058B945B1089643462A4621463846BDE844
:10950000F047FFF778B848F21050BDE8F08700BF89
:109510007052464D10B5044638B149B141600B68F0
:10952000984708B9044B236010BD48F20150FBE78F
:1095300048F21050F8E700BF6E524648F0B41346A8
:1095400048B10768094EB7420AD161B12AB14368F0
:10955000F0BC5B68184748F201531846F0BC7047EE
:1095600048F20253F9E748F21053F6E76E524648C4
:10957000F0B460B107680C4EB7420CD171B14368CA
:109580001568DC68A5420CD39B68F0BC184748F20C
:109590000150F0BC704748F20250FAE748F213500D
:1095A000F7E748F21450F4E76E5246482DE9F041CF
:1095B000044617469846DDE90656FFF7ABFF60B94B
:1095C000424639462046FFF7B9FF30B932462946B0
:1095D0002046BDE8F041FFF7CBBFBDE8F0810000B9
:1095E000F8B50A4F0A4C0B4DE41B0121E408297021
:1095F0000026A64203D102232B700020F8BD57F8A5
:10960000363098470028F9D10136F2E7ECD107004F
:10961000ECD107003001002001390144814200D221
:10962000704703780A7800F8012B01F80139F5E753
:10963000013A02440139824200D2704711F8013FD9
:1096400002F80139F7E770B516460D46FFF7F0FF4F
:109650003246A9193044BDE87040FFF7E9BF38B57C
:109660000D460446FFF7D8FF29466019BDE838408B
:10967000FFF7D2BFBFF34F8F0549064BCA6802F40C
:10968000E0621343CB60BFF34F8F00BFFDE700BF25
:1096900000ED00E00400FA0508B507281BD8DFE854
:1096A00000F004121A1A1A041A040120FEF78AFFA5
:1096B0000020FEF785FF0120FEF782FF0220BDE8B3
:1096C0000840FEF77EBF0120FEF77BFF0220BDE8C9
:1096D0000840FEF775BF08BD08B5FFF7CBFF0000D7
:1096E0000022104610B54FF4805100F03BF90246BD
:1096F00008B1FFF7BFFF0848C0F5FC2100F032F9C0
:109700000028F6D1054800F06BF804460028F0D197
:1097100000F016F9204610BD00800700999607005A
:1097200010B513681F2B144607D900220830FFF725
:109730007FFA08B92023236010BD48F21450FBE7DC
:109740000830FFF751BA0830FFF71EBA014B01226B
:109750001A70704754050020BFF34F8F0549064B20
:10976000CA6802F4E0621343CB60BFF34F8F00BFBF
:10977000FDE700BF00ED00E00400FA05024B0348DE
:1097800000221A7001F022BC5405002059970700EE
:10979000C31E10B50446042B09D8DFE803F0030309
:1097A000080F0F0009494FF4701000F023FA084B1E
:1097B0001B6853B12046BDE810401847054B0648CA
:1097C00000221A7001F002FCF1E710BD7D9707003E
:1097D00058050020540500205997070000207047C5
:1097E00038B54B4B4B4A18604FF0A0430020C3F8EC
:1097F000142701F001FC044638B900F0C7FA01282B
:109800007DD041B219B102287FD0032038BD4FF07E
:109810008043D3F8004414F4803429D04FF48032CC
:10982000C3F800240C463C4D2B6A012B33D04FF477
:10983000701400F029FB394A20211820FEF704FF9C
:1098400008B1FFF749FFFFF7C9FF0028DDD1204627
:10985000334900F0CFF9334801F010F80028D4D193
:1098600000F038FBFEF774FF20BF40BF20BFF7E7D2
:10987000D3F8202502F0F802A82A0AD1D3F820252F
:10988000D20706D5D3F8202502F05602C3F82025CA
:10989000C9E70124C7E743F204031A68224B9A423E
:1098A00009D001F09BFCAA69014694B11F4801F060
:1098B0005FFF90B9BBE76A6B1CB995F86032012B6A
:1098C000EFD04FF480511A4801F052FF0028E8D140
:1098D000ADE795F8A132012BE8D14FF0A043D3F8C2
:1098E00010359B06A3D501F019FC00288DD1114B32
:1098F0001870114801F06AFB00F022F885E70D4B63
:109900000E481C7001F062FB7FE74FF4A02490E743
:10991000580500200C0003008012002034010020B4
:109920007D97070091970700DBE5B15121150020D5
:10993000E0140020540500204D97070059970700B8
:1099400008B5074B4FF0FF32C3F88020C3F88021E1
:1099500000F0EFFF4FF48050BDE8084000F02EB853
:1099600000E100E00346C1F30B0070B520BBB3F586
:10997000FE2F21D81B0B013903EB113101264FF0CB
:109980008044994200D270BD03F01F025D0906FABF
:1099900002F2032D05D8DFE805F00206090CC4F831
:1099A00000260133EDE7C4F80426FAE7C4F81026D0
:1099B000F7E7C4F81426F4E70720E4E730B50546D6
:1099C000204889B00022C0F5FE21FFF7CBFF01F04F
:1099D00005FC1D4B9969002201441046FFF7C2FFA8
:1099E000EFF305820023D5E9004183F3148883F364
:1099F000108883F3118883F31388C2F308023AB9FD
:109A000084F308884FF0FF339E46084709B030BD05
:109A10004FF0FF35203CCDE90033CDE9023304930C
:109A2000CDE905514FF08073202269462046079307
:109A300003F092F984F30888AE466FF006031847E6
:109A4000E4E700BF008007008012002037B56FF008
:109A50007F42154C057BD4F804358A4228BF0A465C
:109A6000891A13444A1E942A23F07F4305F5A872ED
:109A70009BBF963B96314160416044F822300B4BCE
:109A80004FF4F86043F001039847094BAA001344D0
:109A900000221A601B680193019B4FF48033AB4096
:109AA000C4F8043303B030BD0040024030CF07009B
:109AB0004041024018490A7884B0002A29D14FF069
:109AC0008043A020D3F81834DB035EBF134B012280
:109AD0001A60134A0023136012680392039A114A12
:109AE000136012680292029A0F4A13601268019280
:109AF000019A0E4A82F82403102050600C4A0D4847
:109B0000C2F808350123036002201360C2F8040381
:109B10000B7004B0704700BF6005002008000040D3
:109B200000410240404102404441024000E100E067
:109B3000004002400840024013B5284B1A6842B169
:109B400027490A6801320A6000221A601B680093E4
:109B5000009B244B1A68A2B100221A6022481B689D
:109B6000027B0193019B4FF4803393401F4AC2F85C
:109B700008334168044601BB8168D9B9236803B141
:109B800098471B4B1A6832B300221A6016481B68AC
:109B9000027F0193019B4FF480339340134AC2F834
:109BA00008334169044659B1103002B0BDE8104095
:109BB000FFF74CBFFFF74AFFE0E7FFF747FFE0E79B
:109BC000816911B11030FFF741FF23691BB102B069
:109BD000BDE81040184702B010BD00BF044102406C
:109BE0005C050020404102400C0000200040024083
:109BF0004441024070B50B4B1C68227B4FF480330C
:109C00009340094A0E46C2F80833054640B1FFF7B3
:109C100051FF266029462046BDE87040FFF716BF79
:109C200070BD00BF2C0000200040024070B5074B03
:109C30001C680E46A0600546FFF73CFF26602946DB
:109C40002046BDE87040FFF701BF00BF3000002094
:109C5000014B01221A7070476105002038B50F4B87
:109C6000DA6A5D6A9C6CAC2A10D15B6B1C44ED1AFD
:109C70002A4621460A4803F061F868B100F02AF943
:109C800029462046BDE8384000F042BE002CEFD106
:109C900001F0BAFA0446EBE738BD00BF801200209D
:109CA000008007002DE9F74F80468946A9EB08049C
:109CB000240B02F6FF76154600F0E6F8082C28BFC4
:109CC00008242303DFF860B00193360B0DB92B464F
:109CD00026E0B4422CBFB246A2464FF000025146E5
:109CE00040462CBF2F46019F00F0FAFD0346B8B94D
:109CF000FA1C22F003024946404600F0E3FD034609
:109D000070B9DBF83030ED1BB844B9441F44CBF8D0
:109D1000307001F061F9A6EB0A0603460028D5D0A1
:109D2000184603B0BDE8F08F8012002010B501F096
:109D30007DFA154A42F20403916CCC5803F1A34317
:109D400003F5471303F2D7539C4218D1D2E90C32E2
:109D5000934216D0884204D10020BDE8104001F0A3
:109D60003BB9D21A02F6FF7222F47F6222F00F0290
:109D700019441844FFF796FF0028EDD010BD0320CA
:109D8000FCE70020FAE700BF8012002070B5264CE7
:109D9000E36AA52B33D003D8012B0BD0002070BD74
:109DA000AA2B30D0AC2BF9D1FFF7C0FF48BBFFF78F
:109DB00055FF26E0A66C656A01F010FA864229D1AB
:109DC00001F00CFA00222946FEF70AFDA36A984228
:109DD00002BF0123C4E90703A5610025134801F070
:109DE000CFF9134B134800221A7001F0F5F868B947
:109DF00075B1236A012B14BF01200220CFE7FFF7C2
:109E000095FF0125EAE7FFF729FFE6E70320C6E70C
:109E10000120C4E7236BEA1AF1181844FFF742FF48
:109E20000028DAD1CCE700BF80120020A412002065
:109E300061050020519C07000A4AD2F800347BB12A
:109E400009480023D2F80815D940C90748BF03F5CF
:109E5000C07103F1010348BF42F82100072BF1D183
:109E6000704700BF000001403546526EFFF7E4BF67
:109E7000044B002282B01A601B680193019B02B060
:109E8000704700BF0001014038B50E4C2278BAB9C6
:109E90000D4BD3F800248AB1D3F80455FFF7CCFF5B
:109EA00040F61650A842B8BF28460849A0F54860B9
:109EB000FFF7BCFE064B4FF480321A60012323707B
:109EC00038BD00BF62050020000001406D9E070004
:109ED00000E100E0034BD3F800340BB1FFF7ACBF57
:109EE000704700BF000001400023C0E90232C0E912
:109EF00000118B881A440261B1F906301A4442619C
:109F00000888003018BF0120704710B542681188DA
:109F10000346002939D002F110014160148A2CB99E
:109F2000C2680168FFF7E0FF204610BD90781189F4
:109F300000F03004302C1BD1947C04F03004302C21
:109F40001DD190881969091A19610021907810F0C3
:109F5000300F02BF986801309860908A08441969F0
:109F600001441961B2F91620114459610120DCE75E
:109F700000F0F004202C02D150894143E6E700F0C4
:109F8000C000802808BF0421E0E70846CDE770B58F
:109F9000456804460E4663681A88B24204D19B782D
:109FA00003F00F03082B07D12046FFF7AEFF6368CD
:109FB000AB42F0D1002070BD0120FCE743681A4499
:109FC000426011B101399A4201D10120704713F862
:109FD000010B01F8010FF6E72DE9F3418368044610
:109FE000884623B90027384602B0BDE8F0810368EF
:109FF00001220DF10701984707460028F2D0A36817
:10A000009DF80750013B2A06A3601AD505F07F058D
:10A010000726A368002BE5D0236801220DF1070174
:10A02000204698470028DDD0A3689DF80720013B13
:10A03000A36002F07F03B3401D43130606F1070639
:10A0400002D4C8F80050CEE7232EE2D1CAE770B59B
:10A050004268927802F00F01082986B003461FD1AA
:10A0600003691C6800260CB906B070BD236826730E
:10A070009D68626829466846FFF736FF6368049367
:10A0800004F10C030593AB7803F0C003802B08BFE9
:10A09000231D684608BF0493FFF7D9FFA468E2E7D1
:10A0A00012F0C00120D102F0300010280ED15A6900
:10A0B00011705A6818699378D46803F00F03072B5E
:10A0C00009D10146204600F017F8CDE79006F0D5FB
:10A0D0005B691980C8E71289214614B102F03CFE81
:10A0E000C2E702F047FEBFE78029BDD10069002129
:10A0F00092060160B8D5EBE77FB50A46014668468F
:10A10000FFF7F2FE30B16846FFF7A1FF6846FFF7A0
:10A11000FCFEF7E707B05DF804FB000030B504462D
:10A1200085B01546A9B90268114B9A4211D0102D7D
:10A1300006D82A4669462046FFF7F0FF05B030BD35
:10A14000102269462046FFF7E9FF0028F6D0103DAF
:10A15000EDE7A368AB4201D20020EFE723682A466F
:10A16000204698470028F7D0A3685D1BA560E5E767
:10A17000BD9F0700F7B50E4601A907461546FFF734
:10A180002BFFA8B1019A0123D3184FF0000404D289
:10A19000B17801F0C001802901D1204608E0318961
:10A1A0009942FAD329463846FFF7B8FF019BEC5491
:10A1B00003B0F0BD73B50E4601A905461446FFF77E
:10A1C0000BFFB8B1019BB3F5803F07D202229A186A
:10A1D00004D2B17801F0C001802901D1002009E04A
:10A1E00031899142FAD321461A4621F8023B28468A
:10A1F000FFF794FF02B070BD10B5034C82600022DF
:10A20000C0E90041C26010BDBD9F07002DE9F347C2
:10A210000025064688462F462C46B36843B333686C
:10A2200001220DF107013046984708B3B3689DF845
:10A2300007C0013B0CF07F025FFA82F9C4F12001F4
:10A24000B360A4F1200309FA03F329FA01F109FA32
:10A2500004F20B431CF0800F45EA020547EA0307AE
:10A2600004F1070402D1C8E9005702E0462CD4D11A
:10A27000002002B0BDE8F08773B50C46694616466B
:10A28000FFF7C4FF68B12389082B0CD1DDE9004535
:10A29000C6E90045DDE90023AB4206BFA24201202A
:10A2A000002002B070BD042B04D1009B33601C461B
:10A2B0000025EFE7022B4FF0000004D1009B338014
:10A2C0009CB20546E6E7012BEBD1009B337003F00F
:10A2D000FF04F6E737B50D4669461446FFF796FFCB
:10A2E00030B12A89082ADDE9003103D1C4E90031FF
:10A2F00003B030BD042A18464FEAE37108D1236049
:10A300001A460B468B4206BF824201200020EFE72F
:10A31000022A04D11BB223801AB2D317F2E7012A12
:10A3200003D15BB223705AB2F7E70020E0E7F7B53C
:10A330000C46002119702170116001A907461546CD
:10A340001E46FFF749FE30B9BB6813B901233370CD
:10A35000002003B0F0BD01990029F7D0CB0801F02F
:10A3600007012B602170F4E713B5044605291FD8B7
:10A37000DFE801F0030F151E1E1C012201A9204673
:10A38000FFF7CCFE18B19DF90430002BF5DB02B0CD
:10A3900010BD082200212046FFF7C0FEF7E701A903
:10A3A000FFF71AFE0028F2D0019AF3E70422F1E742
:10A3B0000020ECE773B50D4601A90446FFF70CFE3B
:10A3C000064618B90026304602B070BD94E80F006A
:10A3D00085E80F0001998A42F4D3A960A3685B1A4B
:10A3E000A360F0E72DE9F0435568AB7813F0C004A3
:10A3F00089B006468C46174603D0402C6AD000240C
:10A400000AE003F00F025E4903F03003102B51F80D
:10A41000228020D004D8CBB1204609B0BDE8F0831B
:10A42000202B1ED0302BF7D17B6929881980072A71
:10A430000AD17B6838691A89214602F09BFC7B6847
:10A440003969D868FFF758FE3A6940E03A69294609
:10A45000C0470446E0E77B6901221A703A697968CF
:10A46000F6E7BCF1020FD7F8149024D1042A22D8C1
:10A4700004A9FFF79FFF04460028C0D0069B2BB11C
:10A480007968B9F800304A899A4205D8059B73600B
:10A49000069B002BC0D0B2E708893A6903FB002273
:10A4A00004A8C04728B1B9F800300133A9F800303A
:10A4B000E4E70446EAE7B9F800306A899A429ED98F
:10A4C0003A692989581CA9F8000003FB0122796820
:10A4D0003046BDE7D2F81080454655F8043B13B925
:10A4E000FFF742FFB5E7022914D104A9FFF762FF85
:10A4F000002884D0D8F8003079682A4604A8984704
:10A50000044600283FF47BAF069B002BF2D1059B4D
:10A51000736081E701292BD04CB24CB105297FF43F
:10A520006EAF04220DEB0201FFF7F8FD042424E0D6
:10A530000DF1040901340B2C3FF461AF01224946AF
:10A540003046FFF7EBFD00283FF459AF19F9013B06
:10A55000002BEFDB0B4B049301ABCDE9053400235B
:10A560000793D8F8003079682A4604A8984770E71E
:10A57000082201A9FFF7D2FD08240028EAD13EE70E
:10A5800038CF0700BD9F07002DE9F04F91B004467A
:10A59000002604A8CDE90266FFF7A6FCA3683BBB32
:10A5A000DDE9053404A89D78FFF7AFFC0028F7D15A
:10A5B00015F0300F03D1059B1B8803B10134002C2B
:10A5C00000F0A9806309002202A9934240F09C8018
:10A5D00010AA02EB830304F01F04C4F120044FF01F
:10A5E000FF3053F8383CE040C31A584258410DE060
:10A5F0000DF1030301AA0DF102012046FFF797FEBA
:10A6000038B99DF80330002BCAD1002011B0BDE845
:10A61000F08F019904A8FFF7BAFC002850D1019BE4
:10A62000B3427DD3059D059A937803F00F03082B61
:10A630007FD004A8FFF769FC059B9D42F3D14FF042
:10A64000FF36019FB7426BD3089B9DF80290D4F868
:10A6500008801D684FF0010AA368002D5DD0984561
:10A660009CD12B68D3F800B0BBF1000F08D04B464B
:10A670003A4629462046D8470028C6D0AD68EBE7C1
:10A68000D3F808B0BBF800309F42F7D16A6859464A
:10A690000AA8FFF729FC6B680E9305F10C030F93D2
:10A6A0009BF8023003F0C003802B04BF2B1D0E93D8
:10A6B0000AAA85F80CA049462046FFF793FEDBE77F
:10A6C000059B9B7813F0300F0FD1069A3F2A0CD8C8
:10A6D000510910AB03EB810102F01F0201239340EB
:10A6E00051F8382C134341F8383CE5682DB104ABE0
:10A6F0009DF8022001992046A84704AA9DF802105F
:10A700002046FFF76FFE10E051F8225001357FF42C
:10A710007DAF013259E7012078E798457FF43EAFDD
:10A720009DF802102046FFF71FFE00287FF436AF89
:10A730006BE7168885E770B50C4606461546114648
:10A740002046FFF7D9FC2A4621463046BDE8704036
:10A75000FFF71ABFF0B585B00C46CD6869460746CD
:10A760001646FFF727FE68B1E06858B1A37803F0FA
:10A770003003202B32462946684605D1FFF7DBFF20
:10A78000019B7B6005B0F0BDFFF7FEFEF8E7D3B597
:10A790000C466946FFF73AFD80B1DDE9001300275A
:10A7A0004A0801F0010642EAC37256EA07014FEA7D
:10A7B00053031CBFD243DB43C4E9002302B0D0BD26
:10A7C00037B50D4669461446FFF7E1FF68B12B899E
:10A7D000082B0CD1DDE90001C4E90001DDE900230B
:10A7E0008B4206BF82420120002003B030BD042B03
:10A7F00003D100982060C117F0E7022B04D1BDF906
:10A800000000208000B2F6E7012B04D19DF9000082
:10A81000207040B2EFE70020E7E713B504220C46B2
:10A820000DEB0201FFF77AFC08B1019B236002B037
:10A8300010BD1146FFF7F1BF13B508220C4669465B
:10A84000FFF76CFC18B1DDE90023C4E9002302B076
:10A8500010BD1146FFF7F0BF062810B5044602D11F
:10A86000002000F075FC044B1B681BB12046BDE8BE
:10A870001040184710BD00BF6405002008B5074B05
:10A8800018600020FFF7E8FF054800F049FC20B9F8
:10A890000348BDE8084000F057BA08BD6405002031
:10A8A00059A8070043690BB1C068184770470000FA
:10A8B000002202490248FEF719B800BFB8CD0700D0
:10A8C000B000002007B5009313460A46014603482E
:10A8D000FEF710F803B05DF804FB00BFB0000020E5
:10A8E00013460A4601460148FEF70BB8B0000020A7
:10A8F000014B18700B20704768050020024B0022A6
:10A9000018781A70704700BF6805002018DF70477C
:10A9100030B585B0054610220C466846002102F08D
:10A9200029FAA408684601950294FFF7EFFF05B0E5
:10A9300030BD30B585B0062300244FF480556846FD
:10A94000CDE90035CDE90244FFF7E0FF072802BF5B
:10A950004FF0005320461D6005B030BD014B06206E
:10A960001B681847740500200A2803D90B38C0B2A9
:10A97000FFF7BEBF7047000010B5044686B0002048
:10A98000FDF7C6FF014630B1164A18212046FDF7F3
:10A990007FFE06B010BD1822684602F0EBF90423D2
:10A9A0008DF80030104A114B116D1B68994211D17E
:10A9B0000F4B186801F070F88DF80100FFF7D4FF15
:10A9C000D4E901138DF8010068469847094800F062
:10A9D00003FBDEE701238DF801306846D4E901135B
:10A9E0009847D6E779A90700801200206C0500205F
:10A9F000700500205DA90700F0B5044687B0162257
:10AA000000210DF1020002F0B5F923788DF8003035
:10AA100001228DF801200C2B00F28681DFE813F073
:10AA20000D0079000F007900790084017900700031
:10AA300079006E001C002F0074008DF80420D4E90A
:10AA40000113684698479DF80130012B00F06181A1
:10AA50009F4B05201B685BE14FF08053D3F800212A
:10AA60000192D3F804210292D3F80C2192020492AD
:10AA7000D3F81021920203921B690593DFE743F29A
:10AA80000403944D18682A6A9349884214BF01232D
:10AA90000223012A227C08BF013352B902238DF818
:10AAA0000430EB6802938D4B0393C3F5FC230493AE
:10AAB000C5E7012A12D1884210D14FF440531B78C8
:10AAC000142B8ABF43F2140300231B6802934FF434
:10AAD0008053039343F208031B68E8E79A4209D2C4
:10AAE00001238DF80430AB68029300F09DFBAB6945
:10AAF0000390DCE7FF238DF80430A0E7237CFAE71E
:10AB0000238AADF804309AE7714B07201B689847F9
:10AB100095E7062B724A01D0012B01D121691170F2
:10AB20001178012904D0022956D0002313709CE02B
:10AB3000013B072B83D801A252F823F05DAB07003D
:10AB40003FAA0700CDAB07009DAB07003FAA070057
:10AB5000C7AB07003FAA070075AB07005C4B03209B
:10AB60001B689847606900F041FDFFF7FDFE8DF816
:10AB7000010064E7A18A206900F050FDFFF7F4FEB0
:10AB8000544B8DF80100DA6B1B6C0293E368019261
:10AB9000002B3FF454AF2069984750E75149524881
:10ABA00000F08EFDFFF7E0FE01288DF801007FF434
:10ABB00046AF002000F010FA00283FF440AF0A230F
:10ABC0008DF801303BE74FF400730393414BDA6B90
:10ABD0001B6C0192029332E7013B072B3FF62FAF2C
:10ABE00001A252F823F000BF09AC07003FAA0700FA
:10ABF000C7AC0700EDAC07003FAA070017AD070080
:10AC00003FAA07006FAC070000F028FD08B9082331
:10AC1000D6E762690AB90323D2E7C2F30B0333B163
:10AC20002C4B30495B6D096813448B42F3D1B2F56C
:10AC3000805F01D90423C3E7264B2A49586D096870
:10AC400015188D42E3D85A64DA6C9A641865186353
:10AC5000254B61691B6801F6FF710022090B18443E
:10AC6000FFF73EFE00283FF4EAAE0523A8E700F018
:10AC7000F5FC0028CBD0174DA18AD5E914329B1AD8
:10AC80006A6C0B449342C6D8174B2E6B1B68206925
:10AC900005F148021E44FDF7A3FDE368A28A21697D
:10ACA00007463046FFF70EFE08B1E36873E7A28A55
:10ACB0002B6B029713442B63A38A2A6DAF64134452
:10ACC0002B650193BBE6034B9A6C02921B6DF8E770
:10ACD0007405002080120020DBE5B15100800700E0
:10ACE000340000206C050020700500200F4BD3E9D4
:10ACF0001402596C821A8A4289D19A6C58650021D3
:10AD000020465964DA64FFF737FE094B1B680420BC
:10AD1000984707B0F0BD054B9A6C1B6D01934FF43B
:10AD20008053029203938AE6022349E780120020AF
:10AD30007405002083681BB1024A1821FDF7A8BCE6
:10AD400007207047F9A9070038B50546C0B10020B3
:10AD5000FFF7AEFD044648B900F03AFC00F07EFC77
:10AD600030B9084B00201D60FFF7C2FD204638BDFA
:10AD70000549064800F0A4FC0128F2D00324F5E7B9
:10AD80000724F3E7740500206C05002070050020FF
:10AD9000011F0148FDF795BDF4D1070013B5074C1D
:10ADA00001AB0A4601462046FDF7C2FF9DF804208C
:10ADB00003482146FEF798FA02B010BD170700209D
:10ADC0003C00002010B5064C23783BB1054B98425F
:10ADD00004D00548FEF720FA00232370002010BDA0
:10ADE00078050020ECD107003C0000202DE9F0415F
:10ADF000DFF8C88098F8003088B0002B42D1224F8D
:10AE000038602248FDF724FD0446002836D11F484B
:10AE10001F4E204DFDF733FD1F4B83220330C3E946
:10AE20000104DA601C701D4B73601D4BC6E90232D1
:10AE30001C4B33611C4B73610FCD6C460FC495E8FE
:10AE40000F0084E80F0008220623CDE90023012526
:10AE5000164A17488DF8145069460496FDF7F2FF1C
:10AE6000044658B92A4613491348FEF781FA3B684D
:10AE700088F8005004460BB128469847204608B091
:10AE8000BDE8F0810024F9E77C050020F4D107003B
:10AE90004C07002010D10700640700209DAD07007B
:10AEA00091AD070030070020ECD10700C1AE0700CC
:10AEB00038000020480700203C00002078050020D2
:10AEC000F8B50678012E0F4602D0022E1DD0F8BD2F
:10AED0004368104C19782046FDF75EFF3246054660
:10AEE0000D490E48FEF744FA002DF0D13846D4E95A
:10AEF000011200F0D7FE0A48FDF7C1FC0028E6D099
:10AF00000330C4E901052570E1E7C068BDE8F840F9
:10AF1000FEF7E2BB64070020480700203C00002049
:10AF2000F4D107002DE9F04115464FF46072064652
:10AF300088461F4601F002FF28B915B90020BDE878
:10AF4000F081A847FAE7002201213046FFF7C8FC4C
:10AF500070B94FF460724146384601F0FDFE2B4651
:10AF60004FF4607239463046FFF7ACFC0028E5D05C
:10AF70000320E4E770B50D4C064600225821204618
:10AF8000FDF72EFC002244F8040CC32104F51770D1
:10AF9000FDF726FC251FC4F8580232462946044B0B
:10AFA0000448BDE87040FFF7BDBF00BF8412002019
:10AFB0007407002000F0070002460248024B0068B8
:10AFC000FFF7B0BF44000020F40A00200149FFF75A
:10AFD000F3BF00BF00F0070038B505460020FFF7BB
:10AFE000C9FF044618B903492846FFF7E5FF204684
:10AFF00038BD00BF801200202DE9F041FFF758FC5A
:10B000000246002872D13D4C2368013357D05821A5
:10B01000201DFDF7E5FB25682A1A55425541384F9A
:10B02000DFF8E0803E683368013362D000225821A7
:10B03000301DFDF7D5FB3368834242D17468012C83
:10B040000AD00022C32106F51870FDF7C9FBD6F817
:10B050005C42231A5C425C41ADB34FF460722749F5
:10B06000284801F079FE64B1396827485422043138
:10B0700001F072FE3968254840F2C7225C3101F0C8
:10B080006BFED8F80440012C2CD12149402201F25A
:10B09000C71001F061FE1F491C2201F2C71001F028
:10B0A0005BFE1D4988F8A1420023042201F286209C
:10B0B00088F8603288F8E23201F04EFE0FE0054673
:10B0C000ADE70024C8E724B14FF4607239680D4839
:10B0D000D5E74FF4607200210A4801F04BFE0223CD
:10B0E000C8F804300020FFF777FF00B10320BDE867
:10B0F000F081002DEDD00024AFE700BF00F0070085
:10B10000440000208012002084120020DC12002065
:10B11000DC1300201C1400209C120020002070472B
:10B12000F8B5094E094CA41B0746E4080025A542C2
:10B1300001D10020F8BD56F8353038469847002830
:10B14000F8D10135F3E700BFECD10700F4D10700D7
:10B15000F8B5094E094CA41B0746E408002504363F
:10B16000A54201D10020F8BD56F835303846984741
:10B170000028F8D10135F3E7ECD10700F4D107003E
:10B1800008B50C22002101F0F5FD024B00221A63E4
:10B1900008BD00BF8012002008B543F204000C4B2C
:10B1A00002689A4212D1002304220A49FFF78AFB5F
:10B1B00060B9094B1A6A43F20801012A08BF1862F4
:10B1C0009A6909680A44A2F580529A6108BD00BFD5
:10B1D000DBE5B15130D107008012002043F20403B7
:10B1E0001A68084B9A4201BF43F20803186800F638
:10B1F000FF7020F47F600CBF20F00F004FF48050F0
:10B20000704700BFDBE5B15108B5FFF7E7FF054B1D
:10B210009B69184400F6FF7020F47F6020F00F0057
:10B2200008BD00BF80120020FFF7D8BF4FF4805048
:10B23000704700002DE9F74F0193254BDFF898B0D8
:10B240001F6ADFF89890054616464FF0000843F253
:10B25000040A5FFA88F4012C13D0022C1ED0FFF7E9
:10B26000D3FF66B17A1E53425341A9EB0000A842B6
:10B2700000D3F9B1B3B1A8421CD2042025E0334673
:10B28000F3E7FFF7ABFF019B33B9DAF80030B3EB1C
:10B290000B0318BF0123E8E72346E6E701234FF439
:10B2A0008050E2E708F10108B8F1030FD1D1A842BC
:10B2B00002D2E2E7022C05D1FFF76EFF0548FFF747
:10B2C0005FFF01E0002CF9D1002003B0BDE8F08F52
:10B2D0008012002098120020DBE5B15100500700D9
:10B2E00090F8552012F0FB0F07D190F8643023B18D
:10B2F000836ECBB10B600120704712F0010303D0C5
:10B3000090F8563003B1836D9207F2D590F85C2027
:10B31000002AEED0054A006EC2F5FC22904201D808
:10B320000344E6E7042070470F20704700800700C1
:10B3300010B5084C4FF40072FF21204601F01AFDB1
:10B3400020220021A4F1240001F014FD002344F880
:10B350002C3C10BDDC12002030B55B68DA680D4B68
:10B360009A4208D10C490A6812B90C4A14681CB1F7
:10B370000B4B00221A7030BDD0E901341C4413F984
:10B38000015B002DA4EB0300F9DB0B601060044BA4
:10B390000122EFE7ECCF07009C0E0020980E002062
:10B3A000A00E00202DE9FF472F49304D8A6B304C0D
:10B3B000304FDFF8D490DFF8D4A06E465C313046D1
:10B3C000FEF71AFF96E80F0085E80F0000212A4BD0
:10B3D00039704FF447722046C9F80010CAF80010BF
:10B3E000EB6001F0C7FC224624492846FFF7A3F989
:10B3F00020B90027384604B0BDE8F0873F78002F19
:10B40000F7D094F86C3194F800801BB3B8F1000FBA
:10B41000EFD194F87231002BEBD0DAF80020D9F894
:10B4200000103046FEF7E8FE96E80F0085E80F00B2
:10B430004FF4B272414604F5BA7001F09BFC04F57A
:10B44000BA720F492846FFF776F90028D1D004F5E3
:10B45000BA7406E0B8F1000FCBD0A379002BC8D0A6
:10B460000834084B1C60C5E780120020C011002082
:10B47000A40E0020A00E002059B30700A0D00700A2
:10B48000ECCF07007C1200209C0E0020980E0020BC
:10B4900000B591B0FEF7A4F8684620220749FEF7F0
:10B4A000D2F86A46402306490648FDF7F1FF064BED
:10B4B00001221A7011B05DF804FB00BFD8CE07005E
:10B4C000D0110020A0CD0700740E0020F0B5A3B06D
:10B4D00006460F4615461C4678222023002104A864
:10B4E000029301F047FC00230393194B1B780BB91F
:10B4F000FFF7CEFF2FB336BB02AB164E019300967B
:10B50000289B1549224604A8FEF750F8E8B9402DBB
:10B510001BD1124C2A463946204601F01DFC202141
:10B520002046FEF79CF8CDE90045029B0C493246C7
:10B5300003A8FDF7C9FF00280CBF0120052023B098
:10B54000F0BD1320FBE71620F9E70A20F7E700BF5C
:10B55000740E00201812002018CF070038120020A7
:10B56000D0110020F0B5ABB004460E4617461D467C
:10B570007822202300210CA8039301F0FBFB114B40
:10B580001B780BB9FFF784FF2DB12146202204A8B8
:10B59000FEF74EF804AC03AB0B4D019300953B4610
:10B5A00032460A490CA8FEF701F848B92022214684
:10B5B000284601F0C3FBB0FA80F040092BB0F0BD83
:10B5C0000020FBE7740E0020750E002018CF070046
:10B5D00008B5044B986B08B1FFF7E4FE024B1870F6
:10B5E00008BD00BF801200207812002010B504466C
:10B5F00058B1B0F5007F0AD8064B00221A70FFF749
:10B6000097FE054B01209C6310BD0320FCE704203E
:10B61000FAE700BF781200208012002070B50E4CAF
:10B620000646E06BA36B42189A420D4611D85C3077
:10B630000A462044314601F08FFBE36B04F14002DF
:10B640002B4429463046E363FDF7CAF82064012005
:10B6500070BD0320FCE700BF80120020014B18786A
:10B66000704700BF7812002013B5124C94F86C217B
:10B670008AB194F8D802B4F8DA2204F5377104F5E7
:10B68000B87494F85930012B09D8201D02B0BDE8D8
:10B69000104000F005BA114610460434F1E7064B9D
:10B6A0001B680093054B1B68FFF710FF0128ECD0C7
:10B6B00002B010BDA40E0020980E00209C0E0020A9
:10B6C0002DE9F041254BD3E90E329A4207460E464A
:10B6D0003FD1234D95F80080B8F1000F09D0FFF756
:10B6E00093FD204B386031461868BDE8F041FFF704
:10B6F000F7BDFFF757FE70B3FFF7B6FF0128C7F895
:10B7000000800446C6F8008020D1164BD3F8008094
:10B7100031464046FFF7E4FD0128044616D1B8F84B
:10B720001030306823B1D8F81430003318BF01232B
:10B7300000221146FFF77EFD38B9FFF765FD0123B2
:10B7400038602B702046BDE8F0810424FFF7F0FD3F
:10B75000F8E70824F6E70524F4E700BF801200208C
:10B76000781200207C12002001237230FFF7FABE0D
:10B7700037B503780D461146032B03D8DFE803F0F5
:10B7800022051019002003B030BDD0F8014000227E
:10B790002846FDF725F8844214BF00200120F2E777
:10B7A0000A4600232946013003B0BDE83040FFF7C8
:10B7B000D9BE00912B46411C40220020FFF786FE97
:10B7C0000128E9E70120DEE72DE9F041A2B00446B7
:10B7D0000D46174600217822984604A8202303939B
:10B7E0009DF8A06001F0C6FA41220021204601F038
:10B7F000C1FAB5F894300BB195F896602670032E17
:10B800001ED8DFE806F00902111F00224146384623
:10B81000FCF7E6FFC4F80100424639462046FFF730
:10B82000A7FF22B0BDE8F08103AB0193631C009336
:10B830003A464346074904A8FDF7B8FE0028EBD076
:10B840000020EEE7B5F8982005F19A01601C01F0A0
:10B8500083FAE1E718CF07002DE9F043854B1D6817
:10B86000A5B004460F4690460A4601462846FFF713
:10B870007BFF002800F0F88095F85560002E35D148
:10B880004FF00109CDF800903B462246294613A807
:10B89000FFF79AFF58B9B8F1000F75D00525764823
:10B8A000FFF76EFCFFF744FD744B9C646FE0B8F14A
:10B8B000000F57D0412213A9714801F04DFA6F4B88
:10B8C0001E62C3F82C902A8A1E460AB16B690BB916
:10B8D000FFF762FC6B68B360002239462046FCF734
:10B8E0007FFF664B0125C3E90970DBE74122002198
:10B8F00002A801F03FFA06F001094122002113A835
:10B9000001F038FAB9F1000F30D042F20403E258E6
:10B9100003F1A34303F5471303F2D7539A4240F0D0
:10B920009380AB6D03F5FF5203F6FF71C1F30B017A
:10B930001F32521A42F2080161589142C0F08480CD
:10B94000012200922946224602A8FFF73DFF002867
:10B950007AD0AB6DE218FB1A16F0020609D1B8F1E5
:10B96000000F18D1454B01255D6110E03B46224692
:10B97000F2E70021009113A82946FFF725FF0028D0
:10B98000EDD1B8F1000F6AD10525FFF7D1FC2846AB
:10B9900025B0BDE8F083DFF8E480B9F1000F4FD0A7
:10B9A00043F20403374A1968914247D042F2040334
:10B9B000E358981A43424341914221D142F2040292
:10B9C000A2588A421CD14FF440531B78142B81BFDC
:10B9D00043F214032C4A1B68B3FBF2F304F5005244
:10B9E00098BF00231278142A89BF42F21402002261
:10B9F000A258254988BFB2FBF1F29B1A18BF012358
:10BA000013B12248FFF7BCFB412202A9204801F0F4
:10BA1000A3F9002E14BFAC23A523C8F82C30AB6DBE
:10BA2000C8F83430002E3FF457AF412213A919480B
:10BA300001F092F96B68C8F80C304DE70023BBE7C2
:10BA4000AA23C8F82C30EDE7B8F1000F9CD0FFF71F
:10BA5000EDFBA0427FF422AFFFF79EFB1EE7B9F19A
:10BA6000000F3FF41BAFF2E71725B8F1000F7FF48A
:10BA700016AF8AE77C120020A4120020801200205A
:10BA800021150020DBE5B15140420F009812002043
:10BA9000E0140020621500200122FFF7DDBE000047
:10BAA000F0B590F85430002B63D090F85530032B4C
:10BAB0005FD890F86E20032A59D1027A002A58D014
:10BAC000C268342A57D143F20401028A0C682B4918
:10BAD0008C423CD152B14169F9B1D2B2002100F19E
:10BAE000140543F20C06CCB2A24201D8122312E094
:10BAF00055F821703488A74201F10101F3D1027891
:10BB0000002A30D0012B42681D4B26D89B689A42F0
:10BB100034BF102301231846F0BD8BB9012AEED99A
:10BB2000D2B200F1140543F20C06CCB29442DDD23D
:10BB300055F821703488A74201F10101F5D1DEE703
:10BB400013F1FF3218BF0122002AD8D1CEE712B17B
:10BB50004269002ACAD10278F6E7DB689A428CBFB4
:10BB600001231023D7E7012B18BF0F23D3E714239A
:10BB7000D1E70F23CFE71123CDE700BFDBE5B151BC
:10BB800080120020030A08704B70030C000EC8706E
:10BB90008B700420704770B50378082B06460D465D
:10BBA0000BD14B880A88013B9BB24B80002A77D08F
:10BBB000002B75D103234A8003702C696023237006
:10BBC000337863707378A370012B5ED133780B2BBD
:10BBD00064D8DFE803F05663633A63634350635607
:10BBE0000629E11C7068FFF7CDFF0330C2B2A1182F
:10BBF000B068FFF7C7FF0244D2B2A118F068FFF7A0
:10BC0000C1FF0244D2B2A1183069FFF7BBFF024462
:10BC1000D2B27069A118FFF7B5FF1044C1B26B68CA
:10BC20002046BDE8704018473379E370211DB068A5
:10BC3000FFF7A8FF0430C2B2A118F068FFF7A2FF17
:10BC40000244D2B2A1183069E5E7E11C7068FFF741
:10BC500099FF0330C2B2A118B068DCE7E11CF068BC
:10BC6000FFF790FF0330C2B2A1187068FFF78AFF98
:10BC70000244D2B2EFE7B388E3701B0A23710521B7
:10BC8000CDE73379E3700421C9E70B2B06D1FEF72A
:10BC900035FEE0700020FEF72BFEF4E70321BEE73F
:10BCA00070BD0000F0B50E4687B004460D4617463D
:10BCB00000211822684601F05DF816F8013B8DF866
:10BCC00000301D4A0194013B02920A2B0DD8DFE897
:10BCD00003F013060C0C0C102B202F0C2F00AA784D
:10BCE0006B7843EA022323806380A3683046984739
:10BCF00015E06B780493F8E7238863806B78D5F8B8
:10BD000002200493012B0592EFD16069FFF720FA1E
:10BD1000EBE7013FA3680496ADF8147003936846FF
:10BD2000FFF708F807B0F0BDE368ADF81030DCE7C6
:10BD30006B788DF81030D8E797BB07008B1802445A
:10BD40008B4200D1704713F8010D02F8010DF7E79F
:10BD5000C3F10803DB0070B50133002403A500BF65
:10BD60005B1920C940CAAD1920C0184720C940CA74
:10BD7000754120C020C940CA754120C020C940CAB1
:10BD8000754120C020C940CA754120C020C940CAA1
:10BD9000754120C020C940CA754120C020C940CA91
:10BDA000754120C06441204670BD00BF0000000006
:10BDB000C3F10803DB0070B50133002403A500BF05
:10BDC0005B1920C940CAAD1B20C0184720C940CA12
:10BDD000B54120C020C940CAB54120C020C940CAD1
:10BDE000B54120C020C940CAB54120C020C940CAC1
:10BDF000B54120C020C940CAB54120C020C940CAB1
:10BE0000B54120C06441B4FA84F0400970BD00BF60
:10BE10002DE9F04F08B4F8CA04B451F8042BA3FB81
:10BE2000028940F8048B4FF0000AE4FB629A4FF05D
:10BE3000000BE5FB62AB4FF0000CE6FB62BC4FF081
:10BE4000000EE7FB62CE51F8042B4FF00008E3FB35
:10BE5000628940F8048BE4FB629AE5FB62ABE6FB87
:10BE600062BCE7FB62CE51F8042B4FF00008E3FB05
:10BE7000628940F8048BE4FB629AE5FB62ABE6FB67
:10BE800062BCE7FB62CE51F8042B4FF00008E3FBE5
:10BE9000628940F8048BE4FB629AE5FB62ABE6FB47
:10BEA00062BCE7FB62CE51F8042B4FF00008E3FBC5
:10BEB000628940F8048BE4FB629AE5FB62ABE6FB27
:10BEC00062BCE7FB62CE40F8049B40F804AB40F84C
:10BED00004BB40F804CB40F804EB0CBC052B00F08D
:10BEE0001E810C68A0F11400A1F11401A2F114024A
:10BEF00052F804EB4FF0000550F8046BE4FB6E566B
:10BF000052F804EB50F8047BE4FB6E6752F804EB44
:10BF100050F8048BE4FB6E7852F804EB50F8049B65
:10BF2000E4FB6E8952F804EB50F804ABE4FB6E9A24
:10BF3000A0F1140052F8044B51F804EB4FF0000C40
:10BF4000E4FB6EC540F804CB51F804EBE4FB6E56FD
:10BF500040F8045B51F804EBE4FB6E6740F8046BB7
:10BF600051F804EBE4FB6E7840F8047B51F804EBE5
:10BF7000E4FB6E8940F8048B51F804EBE4FB6E9A05
:10BF8000A0E80006062B00F0CA800C68A0F118009B
:10BF9000A1F11801A2F1180252F804EB4FF00005CC
:10BFA00050F8046BE4FB6E5652F804EB50F8047B37
:10BFB000E4FB6E6752F804EB50F8048BE4FB6E78F8
:10BFC00052F804EB50F8049BE4FB6E8952F804EB42
:10BFD00050F804ABE4FB6E9A52F804EB50F804BB43
:10BFE000E4FB6EABA0F1180052F8044B51F804EBDF
:10BFF0004FF0000CE4FB6EC540F804CB51F804EBA5
:10C00000E4FB6E5640F8045B51F804EBE4FB6E670A
:10C0100040F8046B51F804EBE4FB6E7840F8047BC5
:10C0200051F804EBE4FB6E8940F8048B51F804EB03
:10C03000E4FB6E9A40F8049B51F804EBE4FB6EAB12
:10C04000A0E8000C072B6AD008B40C68A0F11C0013
:10C05000A1F11C01A2F11C0252F804EB4FF0000503
:10C0600050F8046BE4FB6E5652F804EB50F8047B76
:10C07000E4FB6E6752F804EB50F8048BE4FB6E7837
:10C0800052F804EB50F8049BE4FB6E8952F804EB81
:10C0900050F804ABE4FB6E9A52F804EB50F804BB82
:10C0A000E4FB6EAB52F804EB50F804CBE4FB6EBC3F
:10C0B000A0F11C0052F8044B51F804EB4FF00003C0
:10C0C000E4FB6E3540F8043B51F804EBE4FB6E569C
:10C0D00040F8045B51F804EBE4FB6E6740F8046B36
:10C0E00051F804EBE4FB6E7840F8047B51F804EB64
:10C0F000E4FB6E8940F8048B51F804EBE4FB6E9A84
:10C1000040F8049B51F804EBE4FB6EAB40F804AB41
:10C1100051F804EBE4FB6EBCA0E8001808BCBDE8D5
:10C12000F08F002310B51C465AB2914200DC10BDBE
:10C1300040F823400133F7E710B500231A465CB2FC
:10C14000A14203DCB2FA82F0400910BD50F823404E
:10C1500001332243F3E74A11012350F8220001F092
:10C160001F0103FA01F108407047013910B549B2C7
:10C17000041D0A06CBB204D4013954F82120002A48
:10C18000F7D001335BB273B103F18042013A50F84A
:10C190002220002022B9013B00EB431318B210BD4E
:10C1A00052080130F6E71846F9E710B500235CB2F3
:10C1B000A24200DC10BD51F8234040F82340013377
:10C1C000F5E710B5013A52B2130601D5002010BDB3
:10C1D00050F8224051F822309C4205D802F1FF323B
:10C1E000F2D24FF0FF30F2E70120F0E700EB8101DF
:10C1F0000023884200D3704751F8042D43EA5203CC
:10C200000B60D307F5E770B59DF910401E46234635
:10C210000546FFF79DFD30B9224629463046FFF717
:10C22000D0FF012807D02346324629462846BDE8DC
:10C230007040FFF7BDBD70BD70B59DF910401E4642
:10C2400023460546FFF7B4FD38B12346324629465A
:10C250002846BDE87040FFF77BBD70BD2DE9F04F6B
:10C26000B5B004AC9DF9F8501F4681462B462046D8
:10C27000FFF7CEFD24AB29463846CDE90234FFF75F
:10C2800074FFC0EB851004B2002C2646B8BF04F141
:10C290001F06634246F3471603F01F0304F01F080E
:10C2A00014A858BFC3F100083146FFF73AFFB8F1B0
:10C2B000000F30B22DDD14AB002203EB8000C8F17B
:10C2C000200C1346AB4219D32FB27B00019314AB61
:10C2D00003EB870705F1FF3834AB012603EB880831
:10C2E000002C54DA34AB03EB86062A4656F8C81CF9
:10C2F0004846FFF75AFF35B0BDE8F08F57F8236086
:10C3000006FA08F10A4340F8042B013326FA0CF22E
:10C31000D8E714AB2A46394603EB8000FFF745FF08
:10C32000D2E70FFA82FE5AF8C83C53F82EB034AB6D
:10C3300003EB8202013052F8803C0B44BBEB030359
:10C3400034BF012200229B4518BF11465CF8C82C5F
:10C3500042F82E30019B42B29A42E2DB731A5E42EF
:10C36000294614A85E41FFF741FF34AB03EB850378
:10C37000294653F8802C58F8803C384643EAC2736B
:10C38000013C48F8803C24B2FFF730FFA8E734AB0B
:10C390000020C6F1010C014603EB860A03EB8C0C6E
:10C3A000D8E730B51C4691B0054693F90030684691
:10C3B000FFF72EFDD4F8AC3069462846984711B0F7
:10C3C00030BD13460A46FFF7ECBF2DE9F04793F95D
:10C3D000006092B00446894610463146154698469C
:10C3E000FFF7AAFE002840F091804246494602A885
:10C3F000FFF7E7FF434602AA21460AA8FFF7D1FF4D
:10C4000002A908464246FFF7DCFF43462A46494652
:10C410004846FFF7C6FF08F104074246294628466A
:10C42000FFF7CFFF3B462A46214620460096FFF7FE
:10C43000EAFE3B462A46294628460096FFF7E3FED9
:10C440003B462A46214628460096FFF7F5FE43461E
:10C450002A4621462046FFF7A4FF3B4622462146B6
:10C4600028460096FFF7CFFE3B4600962A46214617
:10C470002046FFF7C8FE2368DB074AD533463A4615
:10C4800021462046FFF764FC314682462046FFF7EE
:10C49000ADFE06F18043013B54F8230040EACA7028
:10C4A00044F82300424621462846FFF78AFF3B46D0
:10C4B0000AAA294628460096FFF7BEFE3B460AAA6E
:10C4C000294628460096FFF7B7FE0AA908463B46CC
:10C4D0002A460096FFF7B0FE43460AAA21462046A8
:10C4E000FFF75FFF02AA3B46104621460096FFF782
:10C4F000A3FE324629462046FFF757FE4946284606
:10C50000FFF753FE02A94846FFF74FFE12B0BDE801
:10C51000F08731462046FFF769FEC3E72DE9F04179
:10C5200015468AB0044688461C22002103A800F064
:10C5300021FC2E1D95F9007003232A464146204612
:10C540000293FFF73EFF334602AA2146204600979A
:10C55000FFF772FE2B46424621462046FFF721FF99
:10C560000097334605F1840221462046FFF74BFE33
:10C570000AB0BDE8F0810000F0B5082289B00C4691
:10C580000646FFF712FECB6A03930B6B04934B6BCB
:10C5900005938B6B0693CB6B0793002708236A46A2
:10C5A00069466846CDE901770097FFF7D1FB08237C
:10C5B00005466A4631463046FFF7CAFB236B0393B4
:10C5C000636B0493A36B0593E36B0544CDE90637D6
:10C5D0006A46082369466846FFF7BAFB0823054404
:10C5E0006A4631463046FFF7B3FB236A0093636A1D
:10C5F0000193A36A0293A36B0693E36B079305442D
:10C6000008236A4631463046CDE904770397FFF7A1
:10C610009FFB636A0093A36AA26B0193E36A029390
:10C620000492636BE26B0393CDE90523236A0793BE
:10C63000054408236A4631463046FFF789FBE36A22
:10C640000093236B0193636B0293236A0693A36A9F
:10C650000793054408236A4631463046CDE90477FE
:10C660000397FFF7A5FB236B0093636B0193A36B09
:10C670000293E36B0393636A0693E36A07932D1AAD
:10C6800008236A4631463046CDE90477FFF790FB30
:10C69000636B0093A36B0193E36B0293236A039391
:10C6A000636A0493A36ACDE90537236B07932D1AB8
:10C6B00008236A4631463046FFF77AFBA36B0093A6
:10C6C000E36BCDE90137636A0393A36A0493E36ADA
:10C6D000CDE90537636B07932D1A08236A46314667
:10C6E0003046FFF765FB2D1A0D4C0FD435B90822E3
:10C6F00031462046FFF765FD01280FD0082322466A
:10C7000031463046FFF754FB2D1AEFE70823224647
:10C7100031463046FFF71CFB2D18F7D409B0F0BDA9
:10C7200038D10700F0B5154689B01C4607460E46BD
:10C730001A4629466846FFF744FE23466A463946AC
:10C740003846FFF72EFE23462A4669466846FFF71D
:10C7500028FE23466A4631463046FFF722FE09B0DE
:10C76000F0BD2DE9F0438BB01446129D15F9046B12
:10C7700000961F46804689462B460246214602A85F
:10C78000FFF75AFD02A9129A0846FFF71AFE129BFC
:10C7900002AA41464046FFF704FE129B02AA214628
:10C7A0002046FFF7FEFD2B464A463946384600969E
:10C7B000FFF742FD129A394602A8FFF702FE02A9CE
:10C7C0002B46424608460096FFF736FD02A92B4647
:10C7D000224608460096FFF72FFD2B46424621468B
:10C7E00020460096FFF728FD129B22464946484600
:10C7F000FFF7D7FD2B4602AA414620460096FFF7D9
:10C800001BFD129B224639463846FFF7CAFD2B46D0
:10C810004A46394638460096FFF70EFD324602A9D1
:10C820002046FFF7C2FC0BB0BDE8F0832DE9F047CE
:10C830001F46B3F90230894613F11F0148BF03F1C7
:10C840003E014D11D91D48BF03F10E01CC10944299
:10C850004FFA85F828BF144641460646FFF761FCAB
:10C8600022464946FFF76AFAB7F90220E4009442EB
:10C870001FD9A41A06EB85010022C4F120058E42BF
:10C880000ED32437424631463846FFF79AFC01283A
:10C890000FD043463A463046BDE8F047FFF788BA26
:10C8A00051F8040D20FA04F313430B6000FA05F26B
:10C8B000E5E7BDE8F08770B5036813F001060546AB
:10C8C000144605D013460A460146FFF741FA0646CC
:10C8D00021462846FFF78AFC46B104F18042013A1E
:10C8E00055F8223043F0004345F8223070BDF0B5D2
:10C8F0000F46A1B006461946384615461C46FFF7B6
:10C900001BFC20B13046FFF70CFC21B0F0BD2246E5
:10C9100039466846FFF749FC294608A8FFF745FC59
:10C9200010A82146FFF7FDFB012318A81093FFF77D
:10C93000F8FB224608A96846FFF743FC28B92246BF
:10C9400010A93046FFF731FCDFE7009BDA0709D476
:10C9500021466846FFF74AFC2246294610A8FFF701
:10C96000AAFFE6E7089BDB0707D4214608A8FFF7E4
:10C970003DFC2246294618A8F1E7002823461CDD85
:10C9800008AA69466846FFF713FA21466846FFF78A
:10C990002DFC224618A910A8FFF713FC002805DA81
:10C9A00010A923462A460846FFF7D2F910A92346C4
:10C9B00018AA0846FFF7FCF9CEE708A96A46084618
:10C9C000FFF7F6F9214608A8FFF710FC224610A948
:10C9D00018A8FFF7F6FB002805DA18A923462A460F
:10C9E0000846FFF7B5F918A9234610AA0846FFF72D
:10C9F000DFF9BEE70048704734D107002DE9F04F5A
:10CA0000EDB01F46769E0490B6F9023096F90040CC
:10CA100013F11F0948BF03F13E0949F3471909F112
:10CA2000FF3824AB002543F828506CAB03EB880398
:10CA30004CA88A469346394696F9012043F8805C13
:10CA400043F8605CFFF77AF996F9012054A8B91809
:10CA5000FFF774F921464CA8FFF76EFB0746002844
:10CA600040F02D8154A8FFF767FB0290002840F0AA
:10CA7000288106F124034A464CA918460393FFF780
:10CA8000A0FB012840F01F814A4654A90398FFF7F4
:10CA900098FB0128069040F016811CAD0CAF4B4668
:10CAA000039A54A92846FFF722FF029B47F8283033
:10CAB0005A46514638463346FFF7B8FE394638469F
:10CAC000039BCDF800902A46FFF7C8FB0DF5B87818
:10CAD000039BCDF800902A464CA914A8FFF7BEFB93
:10CAE000224640460499FFF760FBA30008EB030AC7
:10CAF0000793049BA100591806F1440B5046FFF719
:10CB000054FB594634A8FFF750FBA3000BEB03017D
:10CB10003CA8FFF74AFB331D414634AA284600943F
:10CB20000593FFF789FB534642463CA934A800967B
:10CB3000FFF717FE2346321D29462846FFF7D7FE8A
:10CB40002A46514640463346FFF7ECFD029BCDE9AD
:10CB5000083B049B49463846CDE90A38FFF705FBF8
:10CB60004946804614A8FFF700FB8045B8BF8046C1
:10CB70001FFA88F808F1FF3B0FFA8BFB594638463D
:10CB8000FFF7E9FA5946071C14A818BF0127FFF759
:10CB9000E2FA002814BF022300231F430DF1200AEC
:10CBA00022465AF8277024A83946FFF7FEFA0DF1FD
:10CBB000B00BA300F9185846FFF7F7FA21462846AC
:10CBC000FFF7AFFAA8F10208069B2B600FFA88F86E
:10CBD0000DF1900AB8F1000F23DA2346059A294691
:10CBE0002846FFF784FE33462A4659465046FFF74B
:10CBF00099FD4A4651460398FFF7E3FA012804D00D
:10CC00004B46039A5046FFF7D3F8013C64B24CAA56
:10CC100023064AD5029BB3FA83F040096DB0BDE804
:10CC2000F08F33462A46D6F8A47059465046B84786
:10CC300041460CA8FFF78FFA4146071C14A818BFFD
:10CC40000127FFF788FA002814BF022300231F439F
:10CC500008AB53F827701FB32246394634A8FFF7B4
:10CC6000A4FA079B3CA8F918FFF79FFA33462A4617
:10CC70003CA934A8FFF756FD059B009434AA514601
:10CC800044A8FFF7D9FA5B4652463CA934A800965F
:10CC9000FFF767FD334644AA29462846FFF781FB84
:10CCA00008F1FF380FFA88F894E752F824105AF880
:10CCB00024304B40029919430291013CA8E72846D1
:10CCC000ACE73846AAE70298A8E7000008B5074B8A
:10CCD000044613B10021AFF30080054B1868836A46
:10CCE00003B19847204600F04DF800BF0000000057
:10CCF000E4D1070070B50D4D0D4C641BA410002647
:10CD0000A64209D10B4D0C4C00F03EF8641BA41058
:10CD10000026A64205D170BD55F8043B9847013660
:10CD2000EEE755F8043B98470136F2E7A8000020EB
:10CD3000A8000020A8000020AC00002030B5013978
:10CD40000024A24201D1002005E0035D01340D5D05
:10CD5000AB42F6D0581B30BD0A44914200F1FF337C
:10CD600000D1704710B511F8014B03F8014F914203
:10CD7000F9D110BD02440346934200D1704703F835
:10CD8000011BF9E7FEE700BFF8B500BFF8BC08BC1F
:10CD90009E467047F8B500BFF8BC08BC9E46704779
:10CDA0004800280000204000F5C9070000100000DE
:10CDB0000400000001000000558907007989070080
:10CDC00089890700F98907009989070061890700A7
:10CDD0006589070069890700982F8A429144377155
:10CDE000CFFBC0B5A5DBB5E95BC25639F111F159EE
:10CDF000A4823F92D55E1CAB98AA07D8015B831230
:10CE0000BE853124C37D0C55745DBE72FEB1DE80DB
:10CE1000A706DC9B74F19BC1C1699BE48647BEEF0A
:10CE2000C69DC10FCCA10C246F2CE92DAA84744A95
:10CE3000DCA9B05CDA88F97652513E986DC631A80B
:10CE4000C82703B0C77F59BFF30BE0C64791A7D5EA
:10CE50005163CA0667292914850AB72738211B2E72
:10CE6000FC6D2C4D130D385354730A65BB0A6A765A
:10CE70002EC9C281852C7292A1E8BFA24B661AA866
:10CE8000708B4BC2A3516CC719E892D1240699D676
:10CE900085350EF470A06A1016C1A419086C371EEF
:10CEA0004C774827B5BCB034B30C1C394AAAD84ECD
:10CEB0004FCA9C5BF36F2E68EE828F746F63A57808
:10CEC0001478C8840802C78CFAFFBE90EB6C50A49B
:10CED000F7A3F9BEF27871C60EDF9FC8E67B4E1A43
:10CEE000CEE86F86E291C29842C02372FC76E6D209
:10CEF000F774FC099FBF885A7978D42FCB2784B167
:10CF0000D18270F9E014F949A447E933AF7D071DD8
:10CF1000D0934BD2938BE6204797070041970700A9
:10CF200021970700200000007800000000000000AA
:10CF30000338FDD870470000D5A2070079A207008A
:10CF4000C1A7070033A8070053A80700B5A1070031
:10CF500075A1070055A707000000000001000100AF
:10CF600000000000010000000000000002000500B9
:10CF7000010000004200000000000000000000006E
:10CF8000000000000000000000000000010011008F
:10CF90000100FFFF01000000000000000200170078
:10CFA0000200FEFF64010000ECCF0700000000005B
:10CFB000000000000000000000000000010001006F
:10CFC0000000000001000000000000000200050059
:10CFD000010000002200000000000000000000002E
:10CFE000000000000000000000000000010011002F
:10CFF0000400FCFF0400000000000000020011001B
:10D000000400FCFF040000000000000003002100F9
:10D010000400FCFF040010000000000004001100E8
:10D020000100FFFF010000000000000005001100EA
:10D030000200FEFF040000000000000006001100D6
:10D040000400FCFF040000000000000007001100C5
:10D050000400FCFF040000000000000008001700AE
:10D060000200FEFF24000000BCCF070009001000F2
:10D070000100FFFF010000009CD007000A0027000C
:10D080000200FEFF440003005CCF07000000000028
:10D090000000000000000000000000000000000090
:10D0A000010017000400FCFF680100008CCF07009E
:10D0B000020017000400FCFFAC010000D0D0070004
:10D0C0000000000000000000000000000000000060
:10D0D0000100070000000000680100008CCF07007D
:10D0E000020001000000000001000000000000003C
:10D0F00003000500010000004200000000000000E5
:10D10000000000000000000000000000000000001F
:10D11000FFFFFFFFFFFFFFFFFFFFFFFFFFFFFFFF1F
:10D1200000000000000000000000D6010600000022
:10D130000000000008200001FFFFFFFFFFFFFFFFCE
:10D14000FFFFFFFF000000000000000000000000E3
:10D1500001000000FFFFFFFF512563FCC2CAB9F3C5
:10D16000849E17A7ADFAE6BCFFFFFFFFFFFFFFFF9E
:10D1700000000000FFFFFFFF96C298D84539A1F4D8
:10D18000A033EB2D817D0377F240A463E5E6BCF884
:10D1900047422CE1F2D1176BF551BF376840B6CB4F
:10D1A000CE5E316B5733CE2B169E0F7C4AEBE78E4B
:10D1B0009B7F1AFEE242E34F4B60D2273E3CCE3BC0
:10D1C000F6B053CCB0061D65BC86987655BDEBB362
:10D1D000E7933AAAD835C65ACBC307001DC5070046
:0CD1E00079C50700480000200000000096
:08D1EC00EDAD0700C5AD070021
:10D1F4008005002014070020170700208805002060
:04D2040084000000A2
:08D2080038B0FF7F01000000B7
:10D210000090D003000000000000000000000000AB
:10D2200000000000000000000000000000000000FE
:10D23000010000000C0000201C0000200100000084
:10D2400000000000002000400000000000E0070097
:10D2500000000000000000000000000000000000CE
:10D2600000000000000000000000000000000000BE
:10D2700000000000000000000000000000000000AE
:10D28000000000000000000000000000000000009E
:10D29000000000000000000000000000000000008E
:10D2A000000000000000000000000000000000007E
:08D2B00025820700018207003E
:10D2B8000000000000000000A5A807000010000002
:04D2C800000008005A
:04000003700082B552
:00000001FF
